:020000040800F2
:1000000000A00020B9020008BF020008C3020008D7
:1000100035030008390300088103000800000000D0
:10002000000000000000000000000000C9030008FC
:10003000CD03000800000000D1030008C111000832
:10004000E5030008E5030008E5030008E5030008F0
:10005000E5030008E5030008E5030008E5030008E0
:10006000E5030008E5030008E5030008E5030008D0
:10007000E5030008E5030008E5030008E5030008C0
:10008000E5030008E5030008E5030008E5030008B0
:10009000E5030008E5030008E5030008E5030008A0
:1000A000E5030008E5030008E5030008E503000890
:1000B000E5030008E5030008E5030008E503000880
:1000C000E5030008E5030008E50300084111000806
:1000D000651100084916000895160008A5160008C5
:1000E000E5030008E5030008E5030008E503000850
:1000F000E5030008E5030008E5030008E503000840
:10010000000000000000000000000000E5030008FF
:10011000E5030008E5030008E5030008E50300081F
:10012000E5030008E5030008E5030008E50300080F
:10013000E5030008E50300080000000000000000DF
:10014000E5030008E5030008E503000800000000DF
:10015000000000000000000000000000000000009F
:100160000000000000000000E5030008E5030008AF
:10017000E50300080000000000000000000000008F
:1001800000000000E503000800B583B000F0B8F9F6
:10019000384B394A1360394A1360394900E0214627
:1001A000384B99420BD20A684B6801F10C048868FD
:1001B0009842F4D91168196004330432F8E72E4BE1
:1001C0001A68314B9A4200D0FEE72C4B1A682F4B2D
:1001D0009A42F9D1274B2E4A13602E4A13602E4BB8
:1001E00005E00020106004329342FAD80B462B4AF7
:1001F000934204D2194651F8082B5B68F4E7244B6C
:100200001B6813B9234B1B6803B1FEE700F084F9A8
:10021000694601A800F020F9214C224BE41AA410F1
:100220000025AC4214DC204C204BE41AA41000251D
:10023000AC4213DC0099019801F020FB05461C4CF0
:100240001C4BE41AA410002C0EDC284600F0E0F849
:10025000144B53F8253098470135E2E7134B53F818
:10026000253098470135E3E7013C124B53F8243021
:100270009847E8E7BABADECA00000020C0000020B4
:10028000E8030008000400087856341232547698C7
:10029000C4000020B401002000040008100400087D
:1002A00010040008100400081004000810040008DE
:1002B000100400081004000808B5FFF765FF00BE31
:1002C000FEE71EF0040F0CBFEFF30880EFF3098088
:1002D0007146414A10472DE9F04182B004468846F4
:1002E000124B5E6B9F6B9D6A1B6B13F0020F03D06A
:1002F0000E4BDB6A002B0CDB0D4800F0B5F8CDF897
:1003000000803B4632462946204600F009F900BEEF
:10031000FEE74BF6AB6100F07DF90028ECD0034B13
:100320004FF00042DA6202B0BDE8F08100ED00E07B
:10033000C430000800BEFEE71EF0040F0CBFEFF350
:100340000880EFF309807146244A10472DE9F041F7
:1003500082B004468846084B5E6B9F6B9D6A0748D7
:1003600000F082F8CDF800803B4632462946204610
:1003700000F0D6F800BEFEE700ED00E0D430000843
:100380001EF0040F0CBFEFF30880EFF309807146F5
:10039000134A10472DE9F04182B004468846084BC5
:1003A0005E6B9F6B9D6A074800F05EF8CDF8008099
:1003B0003B4632462946204600F0B2F800BEFEE732
:1003C00000ED00E0E030000800BEFEE700BEFEE702
:1003D00000BEFEE770470000D70200084D0300088A
:0803E0009503000800BEFEE7D2
:1003E80020D4000800000020C400002020D4000809
:1003F8000000001000000010C4000020B801002018
:080408000000001000000010CC
:10041000FEE7000008B503460C4A12685AB10B4AC1
:100420001068033323F003030344094A934206D8B8
:10043000064A136008BD054A06491160EFE702F05D
:10044000E1F80C2303604FF0FF30F3E7C800002011
:10045000009C0020B801002001230360014B0B60C9
:10046000704700BF040000200FB400B583B004AB98
:1004700053F8042B01938021064802F04DF900281F
:1004800003DD0146034800F037F803B05DF804EBE4
:1004900004B07047D00000202DE9F04385B0044639
:1004A0000F4643560BB10E461EE004252846214652
:1004B000ABBE0446384605B0BDE8F08314F9011B15
:1004C00004AA1A4402F8101C0133AB42F6D304AA62
:1004D0001344002203F8102C4FF00408E94640466C
:1004E0004946ABBE8046761B002EE3D03546102E23
:1004F00028BF10250023E8E708B5FFF7CDFF08BDAA
:1005000008B500F0EFF8024A024B9A6008BD00BF40
:100510000000000800ED00E008B500F015F908BD86
:10052000F8B504460D4617461E462748FFF79CFFC0
:1005300021682648FFF798FF61682548FFF794FF78
:10054000A1682448FFF790FFE1682348FFF78CFF7C
:1005500021692248FFF788FF61692148FFF784FF7E
:10056000A1692048FFF780FFE1691F48FFF77CFF82
:100570001E48FFF779FF29461D48FFF775FF1D4C00
:10058000E16A1D48FFF770FF216B1C48FFF76CFF05
:10059000E16B1B48FFF768FF15F0800F0AD115F4D7
:1005A000004F0CD11748FFF75FFF06991648FFF779
:1005B0005BFFF8BD39461548FFF756FFEFE73146B8
:1005C0001348FFF751FFEDE7A82F0008B82F0008E8
:1005D000C82F0008D82F0008E82F0008F82F0008BF
:1005E00008300008183000082830000838300008AB
:1005F0004430000800ED00E054300008643000088A
:1006000074300008A4300008AC30000884300008C2
:100610009430000883691A888A4201D0002070470C
:100620000268033A012A03D802338361012070472C
:100630000020704782B0002301930093274A13687B
:1006400043F480331360254B1B6803F4003300939D
:10065000019B01330193009B1BB9019BB3F5A06F74
:10066000F1D11E4B1B6813F4003F06D00123009309
:10067000009B012B04D002B0704700230093F7E7E2
:10068000174B12221A60A3F580535A685A605A68B1
:100690005A605A6842F480625A605A6822F47C12A6
:1006A0005A605A6842F4E8125A601A6842F080723E
:1006B0001A600A4B1B6813F0007FFAD0074B5A6888
:1006C00022F003025A605A6842F002025A60034B59
:1006D0005B6803F00C03082BF9D1CCE70010024053
:1006E0000020024008B5144B1A6842F001021A605B
:1006F0005968124A0A405A601A6822F0847222F439
:1007000080321A601A6822F480221A605A6822F431
:10071000FE025A60DA6A22F00F02DA62196B084AA6
:100720000A401A6300229A60FFF784FF054B4FF0DE
:1007300000629A6008BD00BF001002400CC07FF844
:10074000CCFC00FF00ED00E01D4B5B6803F00C03E8
:10075000042B15D0082B17D01BB11A4B1A4A1A605C
:1007600002E0184B184A1A60154B5B68C3F3031379
:10077000164AD35CDAB213490B68D3400B6070475A
:10078000104B114A1A60EFE70D4A53685268C3F3E1
:100790008343023312F4803F05D10D4A02FB03F379
:1007A000084A1360E0E7064AD26A02F00F020132FB
:1007B0000549B1FBF2F203FB02F3024A1360D3E7EF
:1007C000001002401C00002000127A000C000020E3
:1007D00000093D00034B53F82020936843F00103C8
:1007E0009360704720000020034B53F8202093684B
:1007F00023F0010393607047200000200278154B1E
:1008000053F822108A6842F001028A60027853F895
:1008100022104A6822F002024A60027853F822103D
:100820004A6822F480724A60027853F822104A68BB
:1008300022F400624A60027853F822108A6822F497
:1008400000628A60027853F82220936823F0020342
:10085000936070472000002038B504460D46FFF72E
:10086000B9FF2046FFF7B6FF2046134B53F824305C
:100870005A6B22F00F025A635A6B15435D639A68F4
:1008800042F480029A600C4B53F820301A6812F040
:10089000020FF8D0DD6CADB21A6822F002021A60C5
:1008A000054B53F82420136823F0100313602046EF
:1008B000FFF79AFF284638BD2000002010B4012819
:1008C00027D018B1022847D010BC7047072912D989
:1008D0000F29F9D8A1F10804E4B2314B1968A4003A
:1008E0000F20A04021EA00011960186802FA04F103
:1008F00001431960E8E72B4B186889000F248C40EE
:1009000020EA04001860186802FA01F10143196036
:10091000DAE7072912D90F29D6D8A1F10800C0B209
:10092000214B196880000F24844021EA04011960DA
:100930001C6802FA00F121431960C5E71B4B1868D7
:1009400089000F248C4020EA04001860186802FA1D
:1009500001F101431960B7E7072912D90F29B3D86C
:10096000A1F10803DBB2124801689B000F249C40F0
:1009700021EA04010160046802FA03F121430160E5
:10098000A2E70C4B186889000F248C4020EA040071
:100990001860186802FA01F10143196094E700BF7A
:1009A0000408014000080140040C0140000C014013
:1009B0000410014000100140012812D010B102289B
:1009C0001ED07047012A06D012BB012303FA01F1A1
:1009D000134B19607047012303FA01F1114B1960A1
:1009E0007047012A06D09AB9012303FA01F10E4B90
:1009F00019607047012303FA01F10C4B196070472D
:100A0000012A06D022B9012303FA01F1084B19602B
:100A10007047012303FA01F1064B1960704700BFCC
:100A20001408014010080140140C0140100C014052
:100A3000141001401010014010B51349002000F0BF
:100A4000D3FD124C2146002000F0E8FD4FF47A70EF
:100A500000F0A0FB0E49002000F0C6FD214600205A
:100A600000F0DCFD4FF47A7000F094FB094900209F
:100A700000F0BAFD2146002000F0D0FD4FF47A705E
:100A800000F088FB10BD00BF683100085001002055
:100A9000703100087831000838B505460C460D491C
:100AA000002000F0A1FD2946002000F09DFD0A492C
:100AB000002000F099FD2146002000F095FD074937
:100AC000002000F091FD0649002000F0A7FD012064
:100AD00038BD00BF30310008403100084431000803
:100AE0005001002010B504460A49002000F07CFDAA
:100AF0000949002000F078FD2146002000F074FD37
:100B00000649002000F070FD0549002000F086FD38
:100B1000012010BD483100085C3100086031000838
:100B2000500100202DE9F04180460E4614461F4634
:100B30001C49002000F058FD2146002000F054FD23
:100B4000194D2946002000F04FFD642000F022FBE3
:100B5000164C2146002000F061FD1549002000F0F0
:100B600043FD4146002000F03FFD1249002000F007
:100B70003BFD3946002000F037FD0F49002000F012
:100B800033FD3146002000F02FFD2946002000F003
:100B90002BFD642000F0FEFA2146002000F03EFD0F
:100BA000BDE8F081F03000086431000850010020F9
:100BB000FC3000082C31000840D3000810B4441A5F
:100BC000BDF80400C01A00FB04F0521A90FBF2F0CA
:100BD000184480B210BC7047F8B504460378002B67
:100BE00030D10B21022000F09BF922788E4B53F874
:100BF00022100A6842F080020A60227853F822101C
:100C00000A6822F010020A60227853F822104A681B
:100C100042F040024A60227853F822108A6842F07B
:100C200080028A60227853F82220618891622278BB
:100C300053F82220A188D162227853F82220002381
:100C4000536342E00D21022000F06AF9CDE72278DB
:100C5000754850F82260F5699A1ED200012101FA08
:100C600002F725EA0705F561257850F82570FD693A
:100C7000561801FA06F625EA0605FD61257850F8B2
:100C80002570FD69D61C01FA06F63543FD6125780D
:100C900050F82570FD69161D01FA06F625EA0605CD
:100CA000FD61257850F82570FD69561D01FA06F69C
:100CB0003543FD61257850F82550E869063201FA80
:100CC00002F20243EA610133DBB2032B3CD8012B71
:100CD000BDD82278544850F82260B569D900012265
:100CE00002FA01F725EA0705B561257850F8257065
:100CF000BD698E1802FA06F625EA0605BD6125785B
:100D000050F82570BD69CE1C02FA06F63543BD6168
:100D1000257850F82570BD690E1D02FA06F625EA01
:100D20000605BD61257850F82570BD694E1D02FA93
:100D300006F63543BD61257850F82550A86906317F
:100D40008A400243AA61BEE72278374B53F822203B
:100D5000136A23F002031362A379012B3FD0227898
:100D6000314B53F82220136A23F001031362E37915
:100D7000012B3DD022782C4B53F82220136A23F00C
:100D800010031362237A012B3BD02278264B53F8B1
:100D90002220136A23F480731362637A012B39D003
:100DA0002278214B53F82220136A23F480531362D4
:100DB00022781D4B53F822104A6942F001024A6121
:100DC000227853F822104A6C42F400424A64227896
:100DD00053F82220136843F001031360F8BD227812
:100DE000114B53F82220136A43F001031362BEE74C
:100DF00022780D4B53F82220136A43F0100313623C
:100E0000C0E72278084B53F82220136A43F480731A
:100E10001362C2E72278044B53F82220136A43F48A
:100E200080531362C4E700BF2800002030B583B0B0
:100E30001446032910D8DFE801F002111F2D1C4BC6
:100E400053F82050EB6A9BB20093002364221946AA
:100E50002046FFF7B3FE686303B030BD144B53F870
:100E60002050EB6A9BB2009300236422194620466F
:100E7000FFF7A4FEA863EFE70D4B53F82050EB6A91
:100E80009BB200930023642219462046FFF796FE8A
:100E9000E863E1E7064B53F82050EB6A9BB20093FE
:100EA0000023642219462046FFF788FE2864D3E712
:100EB00028000020184A136843F001031360164B02
:100EC0001B6813F0020FFAD0144B1A6822F00102CB
:100ED0001A601A6822F002021A601A6822F0806210
:100EE0001A600D490A6822F400220A601A6842F466
:100EF00080421A601A6842F400421A601A6822F4AA
:100F000000521A601A6822F480621A601A6822F08D
:100F100080021A60704700BF0010024004100240B7
:100F20001F291CD801280BD010B1022810D07047FF
:100F30000B480368012202FA01F11943016070476E
:100F400008480368012202FA01F119430160704761
:100F500005480368012202FA01F119430160704754
:100F6000141002401C1002401810024030B4694BAB
:100F700053F8203000221A604B78002B77D0012BD9
:100F80007ED1644B53F82020136843F002031360B2
:100F900000238A78002A75D0012A7BD15D4A52F855
:100FA0002040226842F001022260CA78002A73D0F1
:100FB000012A79D1574A52F82040226842F0800233
:100FC00022600A79002A71D0012A77D1514A52F859
:100FD0002040226842F4006222604A79002A6FD0E1
:100FE000012A75D14B4C54F820502A6842F4007203
:100FF0002A6054F82040226842F4807222608A7984
:10100000002A67D0012A6DD1424A52F82040226856
:1010100042F480622260CA79072A65D83D4C54F8B0
:1010200020502C6844EAC2022A600A7A002A5DD065
:10103000012A63D1374A52F82040626842F04002E8
:1010400062600A78002A5BD0012A61D1314A52F8E5
:1010500020100A6842F004020A602E4A52F820105A
:101060000A6842F040020A60184630BC7047294BBB
:1010700053F82020136823F002031360002388E74D
:10108000012386E7234A52F82040226822F0010219
:1010900022608AE7012388E71E4A52F8204022682E
:1010A00022F0800222608CE701238AE7194A52F875
:1010B0002040226822F4006222608EE701238CE740
:1010C000144A52F82040226822F40072226096E707
:1010D000012394E70F4A52F82040226822F48062EC
:1010E000226098E7012396E701239EE7094A52F818
:1010F0002040626822F040026260A2E70123A0E77C
:10110000044A52F820100A6822F004020A60A4E798
:101110000123A2E73000002010B40446074B53F827
:101120002030D960054B53F824309A6812F0800FB4
:10113000F8D1D86880B210BC704700BF30000020E2
:1011400008B5064B1B689A6822F001029A60D868BD
:10115000034B1B6880B2984708BD00BF30000020D9
:101160008001002008B5064A51688B6823F001030E
:101170008B601368D868034B5B6880B2984708BDE2
:101180003000002080010020014B00221A607047CF
:1011900010E000E0094B58601A6842F001021A6042
:1011A000064B1B6813F4803FFAD0044B1A6842F0D8
:1011B00001021A6000225A609A60704710E000E055
:1011C00008B50A4B1B785BB9094B1A6822F002027A
:1011D0001A601A6842F001021A6000225A609A608E
:1011E000044B1B689847024B1B6808BD6401002034
:1011F00010E000E06001002010B504460122042147
:101200001046FFF7D9FB002203211046FFF7D4FB5D
:1012100021460020FFF780FF012203210020FFF775
:10122000CBFB10BD10B5C4B2000AFFF7E5FF2046A6
:10123000FFF7E2FF10BD10B5044600220421012093
:10124000FFF7BAFB002203211046FFF7B5FB21464A
:101250000020FFF761FF012203210020FFF7ACFB14
:1012600010BD7E2801D89E2A00D97047F8B51E46C9
:1012700015460F4604462A20FFF7DDFF200AFFF738
:10128000BBFFE0B2FFF7B8FF380AFFF7B5FFF8B2CF
:10129000FFF7B2FF2B20FFF7CEFF280AFFF7ACFFC6
:1012A000E8B2FFF7A9FF300AFFF7A6FFF0B2FFF799
:1012B000A3FF2C20FFF7BFFFF8BD7E2801D89E2991
:1012C00000D9704710B514460A464B1C411C9BB20E
:1012D00089B2FFF7C6FF2046FFF7A4FF10BD08B58F
:1012E000012203211046FFF7E9FA012204211046EA
:1012F000FFF7E4FA012203211046FFF75DFB6420AB
:10130000FFF748FF002203210120FFF755FB0220D1
:10131000FFF740FF012203211046FFF74DFB642039
:10132000FFF738FF002203210120FFF745FB64206F
:10133000FFF730FF012203211046FFF73DFB782025
:10134000FFF728FF1120FFF776FF9620FFF722FF17
:101350003A20FFF770FF0520FFF74EFF2920FFF727
:101360006AFF08BD38B505469F2300227F2110463D
:10137000FFF777FF002405E035F81400FFF752FF70
:101380000134A4B244F6E0639C42F5D938BDF8B507
:1013900016461D46BDF818708418A4B2013CCB183F
:1013A0009BB2013B9BB20A46A1B2FFF75AFF002451
:1013B00004E03846FFF736FF0134A4B205FB06F31C
:1013C0009C42F6DBF8BD00B583B00090A0238022DC
:1013D00000210846FFF7DBFF03B05DF804FB0000C7
:1013E0002DE9F04F83B0884691469A46BDF830B05B
:1013F0001F2812DDC6B2203EF6B21FFA8AF707EBAD
:1014000047035A0092B2BDF834300093FB004946BE
:101410004046FFF7BCFF00252AE00026EDE709EB78
:10142000040108EB05005A4689B280B2FFF745FF78
:101430000134E4B2072C19D806EB46035A00104BCE
:1014400013445B5D234113F0010FF1D0BAF1010F9A
:10145000E5D005FB078004FB0791CDF800B03B46C3
:101460003A4689B280B2FFF792FFE1E70135EDB26B
:10147000052D01D80024DDE703B0BDE8F08F00BFE3
:101480008C3100082DE9F04383B00446894690462C
:101490001D46BDF82870BDF82C600DE00196009740
:1014A0002B4642464946FFF79BFF05EB4503590093
:1014B00049441FFA81F9013494F900000028EDD164
:1014C00003B0BDE8F083000002783E4B53F82230B1
:1014D00042889A604379002B2BD10278394B53F81C
:1014E0002220D36843F00803D3600379002B3BD15B
:1014F0000378344A52F82310CB6823F48063CB601E
:10150000037852F82320D36823F40073D360027861
:101510002C4B53F8223000221A604378012B47D01D
:101520000278284B53F82220D36823F40053D36069
:101530007047012B0FD00378224A52F82310CB6852
:1015400043F00803CB60037852F82320D36843F0BC
:101550000403D360C9E702781A4B53F82220D368FA
:1015600043F00403D360C0E7012B11D0022BCED18E
:101570000378144A52F82310CB6843F48063CB609D
:10158000037852F82320D36843F40073D360BEE796
:1015900003780C4A52F82310CB6843F48063CB6085
:1015A000037852F82320D36823F40073D360AEE7A6
:1015B0000278044B53F82220D36843F40053D360DD
:1015C000704700BF380000200246064B53F8203019
:1015D0005960044B53F822301B6813F0400FF8D0C9
:1015E000704700BF3800002070B506460D46002445
:1015F00004E03046FFF7E8FF0134E4B2295D00293A
:10160000F7D170BD044B53F820301A6812F0200F48
:10161000F8D05868C0B270473800002070B5064650
:101620000D46FFF7EFFF2870002405E00134E4B217
:101630003046FFF7E7FF28552A192B5D0A2BF5D115
:101640000023137070BD000008B5104B1B6803B178
:1016500098470F4B19680A6822F020020A6019683F
:101660000A6822F040020A6019680A6822F08002C3
:101670000A601B681A6812F0100F06D01A6822F070
:1016800010021A60024B1B685B6808BD68010020ED
:101690003800002008B5024B5B6803B1984708BDCD
:1016A0006801002008B5024B9B6803B1984708BD4C
:1016B000680100200000000008B500210846FFF77F
:1016C000CBF800F0ABFE00F039FB07A3D3E9002311
:1016D00000F08CFB02460B4600F0D2F900F098FDBA
:1016E00008BD00BFAFF300806666666666664A3F67
:1016F0002DE9F04387B0FFF7DDFBDFF878810024A8
:1017000088F80040012688F801604523A8F80230D7
:1017100088F80440022588F805504F4F3E707E70CF
:1017200040F241337B803C717D714C4A03AB07CA68
:1017300003C31A70DFF8409189F80040A9F802400D
:1017400089F804402723ADF80430C723ADF80230F0
:101750008DF800408DF806608DF807608DF8086000
:101760008DF8096029462846FFF7DAFB0321284651
:10177000FFF7D6FB09212846FFF7D2FB0E212846AA
:10178000FFF7CEFB11213046FFF7CAFB0C2128469C
:10179000FFF7C6FB224621462046FFF78FF82A4670
:1017A00031463046FFF78AF80A2208212046FFF723
:1017B00085F80A2229462046FFF780F804220321F3
:1017C0002046FFF77BF80A2209212046FFF776F82A
:1017D00004220A212046FFF771F80922072120463A
:1017E000FFF76CF8042206212046FFF767F809226C
:1017F00005212046FFF762F84846FEF7FFFF404606
:10180000FFF762FE3846FFF75FFE03A92046FFF7A9
:10181000ADFBFFF7B9FC6846FFF7DEF9FFF70CF9FF
:101820000F4B19680F4B1868FFF736F94FF47A70B1
:10183000FFF7B0FC0C48FFF755F9FFF750FD0B48D8
:10184000FFF790FD03E00A48FFF7A4FC01341D2CCC
:10185000F9DD07B0BDE8F083A8010020CC33000813
:101860005000002054000020D8330008EC3300085A
:1018700040420F0098010020A001002080B582B0F6
:10188000FFF736FF79E063786B2B40F083803222DC
:1018900000210846FFF7CAFAFFF70EFF0446634B24
:1018A00018604FF0814100F073FE002872D060494B
:1018B000204600F063FE00286CD00122114610463D
:1018C000FFF77AF866E04FF6C073019343F6DF1333
:1018D0000093012328220A215648FFF7D3FD564BD7
:1018E000564A574957480068FFF71CF94FF6C0752C
:1018F000019543F6DF1ACDF800A0012350220A21FA
:101900005148FFF7BFFD514C0A222146504B187831
:1019100000F096FE01954FF47849CDF80090012330
:10192000502264212046FFF7ADFDDFF84481434F8C
:10193000444E43463A4621463068FFF7F3F8019596
:10194000CDF800A0012378220A214248FFF79AFD32
:101950000A222146404B187800F072FE0195CDF81E
:1019600000900123782264212046FFF78BFD434637
:101970003A4621463068FFF7D5F8FFF79DFE2B4B1E
:101980001860364C21460120FFF748FE23786F2B64
:101990003FF479AF4FF6C070FFF715FD4FF6C076F4
:1019A000019643F6DF130093012314220A212C48E9
:1019B000FFF768FD254C1D4D286800F0FDFD0A224B
:1019C000214600F03DFE01964FF478430093012339
:1019D000142264212046FFF755FD224B174A214669
:1019E00018480068FFF79EF82C684FF081412046A8
:1019F00000F0CEFD00283FF466AF0D49204600F010
:101A0000BDFD00283FF45FAF019643F6DF1300935E
:101A1000012328220A211448FFF734FD064B074A08
:101A2000124908480068FFF77DF85FE7B001002021
:101A3000CDCCDC4020D3000814D30008FCD2000831
:101A400034D300084800002038D300088801002063
:101A50004C0000204CD30008580000204400002017
:101A6000ECD20008F4D2000800D300081CD3000810
:101A700044D3000881F0004102E000BF83F000433E
:101A800030B54FEA41044FEA430594EA050F08BF19
:101A900090EA020F1FBF54EA000C55EA020C7FEADD
:101AA000645C7FEA655C00F0E2804FEA5454D4EB5A
:101AB0005555B8BF6D420CDD2C4480EA020281EA24
:101AC000030382EA000083EA010180EA020281EA5C
:101AD0000303362D88BF30BD11F0004F4FEA0131AE
:101AE0004FF4801C4CEA113102D0404261EB4101BD
:101AF00013F0004F4FEA03334CEA133302D0524243
:101B000063EB430394EA050F00F0A780A4F10104FE
:101B1000D5F1200E0DDB02FA0EFC22FA05F2801838
:101B200041F1000103FA0EF2801843FA05F359411E
:101B30000EE0A5F120050EF1200E012A03FA0EFC9D
:101B400028BF4CF0020C43FA05F3C01851EBE371C7
:101B500001F0004507D54FF0000EDCF1000C7EEBE4
:101B600000006EEB0101B1F5801F1BD3B1F5001F22
:101B70000CD349085FEA30004FEA3C0C04F1010441
:101B80004FEA445212F5800F80F09A80BCF1004F6A
:101B900008BF5FEA500C50F1000041EB045141EAEC
:101BA000050130BD5FEA4C0C404141EB010111F4ED
:101BB000801FA4F10104E9D191F0000F04BF014698
:101BC0000020B1FA81F308BF2033A3F10B03B3F176
:101BD00020020CDA0C3208DD02F1140CC2F10C0206
:101BE00001FA0CF021FA02F10CE002F11402D8BF64
:101BF000C2F1200C01FA02F120FA0CFCDCBF41EA30
:101C00000C019040E41AA2BF01EB0451294330BDFE
:101C10006FEA04041F3C1CDA0C340EDC04F11404DB
:101C2000C4F1200220FA04F001FA02F340EA0300B2
:101C300021FA04F345EA030130BDC4F10C04C4F1F8
:101C4000200220FA02F001FA04F340EA03002946D8
:101C500030BD21FA04F0294630BD94F0000F83F422
:101C6000801306BF81F480110134013D4EE77FEA05
:101C7000645C18BF7FEA655C29D094EA050F08BF51
:101C800090EA020F05D054EA000C04BF1946104632
:101C900030BD91EA030F1EBF0021002030BD5FEA76
:101CA000545C05D14000494128BF41F0004130BD9E
:101CB00014F580043CBF01F5801130BD01F00045F2
:101CC00045F0FE4141F470014FF0000030BD7FEA65
:101CD000645C1ABF194610467FEA655C1CBF0B4660
:101CE000024650EA013406BF52EA033591EA030F77
:101CF00041F4002130BD00BF90F0000F04BF00216F
:101D0000704730B54FF4806404F132044FF00005A1
:101D10004FF0000150E700BF90F0000F04BF00211A
:101D2000704730B54FF4806404F1320410F0004580
:101D300048BF40424FF000013EE700BF42004FEA7B
:101D4000E2014FEA31014FEA02701FBF12F07F43F8
:101D500093F07F4F81F06051704732F07F4208BFAF
:101D6000704793F07F4F04BF41F40021704730B5B6
:101D70004FF4607401F0004521F000411CE700BF02
:101D800050EA010208BF704730B54FF000050AE085
:101D900050EA010208BF704730B511F0004502D586
:101DA000404261EB41014FF4806404F132045FEA88
:101DB000915C3FF4D8AE4FF003025FEADC0C18BF31
:101DC00003325FEADC0C18BF033202EBDC02C2F123
:101DD000200300FA03FC20FA02F001FA03FE40EAB5
:101DE0000E0021FA02F11444BDE600BF70B54FF0B9
:101DF000FF0C4CF4E06C1CEA11541DBF1CEA135597
:101E000094EA0C0F95EA0C0F00F0DEF82C4481EAFE
:101E1000030621EA4C5123EA4C5350EA013518BF1E
:101E200052EA033541F4801143F4801338D0A0FB0B
:101E300002CE4FF00005E1FB02E506F00042E0FBB8
:101E400003E54FF00006E1FB03569CF0000F18BFBE
:101E50004EF0010EA4F1FF04B6F5007F64F5407466
:101E600004D25FEA4E0E6D4146EB060642EAC621F9
:101E700041EA55514FEAC52040EA5E504FEACE2E66
:101E8000B4F1FD0C88BFBCF5E06F1ED8BEF1004F69
:101E900008BF5FEA500E50F1000041EB045170BDE5
:101EA00006F0004646EA010140EA020081EA030129
:101EB000B4EB5C04C2BFD4EB0C0541EA045170BD25
:101EC00041F480114FF0000E013C00F3AB8014F19F
:101ED000360FDEBF002001F0004170BDC4F10004E8
:101EE000203C35DA0C341BDC04F11404C4F1200569
:101EF00000FA05F320FA04F001FA05F240EA0200C4
:101F000001F0004221F0004110EBD37021FA04F6F9
:101F100042EB06015EEA430E08BF20EAD37070BDB3
:101F2000C4F10C04C4F1200500FA04F320FA05F012
:101F300001FA04F240EA020001F0004110EBD37014
:101F400041F100015EEA430E08BF20EAD37070BD84
:101F5000C4F1200500FA05F24EEA020E20FA04F35D
:101F600001FA05F243EA020321FA04F001F000410C
:101F700021FA04F220EA020000EBD3705EEA430E7D
:101F800008BF20EAD37070BD94F0000F0FD101F0AC
:101F90000046400041EB010111F4801F08BF013CE5
:101FA000F7D041EA060195F0000F18BF704703F023
:101FB0000046520043EB030313F4801F08BF013DAA
:101FC000F7D043EA0603704794EA0C0F0CEA135566
:101FD00018BF95EA0C0F0CD050EA410618BF52EA20
:101FE0004306D1D181EA030101F000414FF0000026
:101FF00070BD50EA410606BF1046194652EA430634
:1020000019D094EA0C0F02D150EA013613D195EAA7
:102010000C0F05D152EA03361CBF104619460AD1EF
:1020200081EA030101F0004141F0FE4141F47001F9
:102030004FF0000070BD41F0FE4141F4780170BDE9
:1020400070B54FF0FF0C4CF4E06C1CEA11541DBF4E
:102050001CEA135594EA0C0F95EA0C0F00F0A7F850
:10206000A4EB050481EA030E52EA03354FEA01317D
:1020700000F088804FEA03334FF0805545EA131390
:1020800043EA12634FEA022245EA111545EA106558
:102090004FEA00260EF000419D4208BF964244F1EF
:1020A000FD0404F5407402D25B084FEA3202B61A0E
:1020B00065EB03055B084FEA32024FF480104FF4E2
:1020C000002CB6EB020E75EB030E22BFB61A754656
:1020D00040EA0C005B084FEA3202B6EB020E75EBE9
:1020E000030E22BFB61A754640EA5C005B084FEA51
:1020F0003202B6EB020E75EB030E22BFB61A75461E
:1021000040EA9C005B084FEA3202B6EB020E75EB28
:10211000030E22BFB61A754640EADC0055EA060EE9
:1021200018D04FEA051545EA16754FEA06164FEA2C
:10213000C30343EA52734FEAC2025FEA1C1CC0D1D8
:1021400011F4801F0BD141EA00014FF000004FF065
:10215000004CB6E711F4801F04BF01430020B4F126
:10216000FD0C88BFBCF5E06F3FF6AFAEB5EB030CDE
:1021700004BFB6EB020C5FEA500C50F1000041EBDB
:10218000045170BD0EF0004E4EEA113114EB5C04A8
:10219000C2BFD4EB0C0541EA045170BD41F480117B
:1021A0004FF0000E013C90E645EA060E8DE60CEA83
:1021B000135594EA0C0F08BF95EA0C0F3FF43BAFA0
:1021C00094EA0C0F0AD150EA01347FF434AF95EA57
:1021D0000C0F7FF425AF104619462CE795EA0C0F3B
:1021E00006D152EA03353FF4FDAE1046194622E708
:1021F00050EA410618BF52EA43067FF4C5AE50EAE2
:1022000041047FF40DAF52EA43057FF4EBAE12E7D1
:102210004FEA4102B2F1E04324BFB3F5001CDCF108
:10222000FE5C0DD901F0004C4FEAC0024CEA507040
:10223000B2F1004F40EB830008BF20F0010070476F
:1022400011F0804F21D113F13872BCBF01F0004072
:10225000704741F480114FEA5252C2F11802C2F1A4
:10226000200C10FA0CF320FA02F018BF40F0010025
:102270004FEAC1234FEAD32303FA0CFC40EA0C00D7
:1022800023FA02F34FEA4303CCE77FEA625307D114
:1022900050EA01331EBF4FF0FE4040F4400070474B
:1022A00001F0004040F0FE4040F40000704700BFE5
:1022B00080F0004002E000BF81F0004142001FBFFB
:1022C0005FEA410392EA030F7FEA226C7FEA236C04
:1022D0006AD04FEA1262D2EB1363C1BFD2184140F9
:1022E00048404140B8BF5B42192B88BF704710F08F
:1022F000004F40F4000020F07F4018BF404211F032
:10230000004F41F4000121F07F4118BF494292EA99
:10231000030F3FD0A2F1010241FA03FC10EB0C00C5
:10232000C3F1200301FA03F100F0004302D5494252
:1023300060EB4000B0F5000F13D3B0F1807F06D3FF
:1023400040084FEA310102F10102FE2A51D2B1F1F7
:10235000004F40EBC25008BF20F0010040EA0300EC
:102360007047490040EB000010F4000FA2F1010299
:10237000EDD1B0FA80FCACF1080CB2EB0C0200FA23
:102380000CF0AABF00EBC25052421843BCBFD04071
:102390001843704792F0000F81F4000106BF80F4EB
:1023A00000000132013BB5E74FEA41037FEA226CAE
:1023B00018BF7FEA236C21D092EA030F04D092F079
:1023C000000F08BF0846704790EA010F1CBF0020AD
:1023D000704712F07F4F04D1400028BF40F000400A
:1023E000704712F100723CBF00F50000704700F02A
:1023F000004343F0FE4040F4000070477FEA226251
:1024000016BF08467FEA23630146420206BF5FEA21
:10241000412390EA010F40F4800070474FF0000321
:1024200004E000BF10F0004348BF40425FEA000CE8
:1024300008BF704743F0964301464FF000001CE090
:1024400050EA010208BF70474FF000030AE000BFE6
:1024500050EA010208BF704711F0004302D5404224
:1024600061EB41015FEA010C02BF84460146002096
:1024700043F0B64308BFA3F18053A3F50003BCFAB1
:102480008CF2083AA3EBC25310DB01FA02FC63445E
:1024900000FA02FCC2F12002BCF1004F20FA02F265
:1024A00043EB020008BF20F00100704702F1200258
:1024B00001FA02FCC2F1200250EA4C0021FA02F2B9
:1024C00043EB020008BF20EADC7070474FF0FF3C8E
:1024D00006E000BF4FF0010C02E000BF4FF0010C1E
:1024E0004DF804CD4FEA40024FEA41037FEA226CE7
:1024F00018BF7FEA236C11D001B052EA530C18BF09
:1025000090EA010F58BFB2EB030088BFC81738BF6D
:102510006FEAE17018BF40F0010070477FEA226C5B
:1025200002D15FEA402C05D17FEA236CE4D15FEA57
:10253000412CE1D05DF8040B704700BF844608468B
:102540006146FFE70FB5FFF7C9FF002848BF10F14C
:10255000000F0FBD4DF808EDFFF7F4FF0CBF012091
:1025600000205DF808FB00BF4DF808EDFFF7EAFF1B
:1025700034BF012000205DF808FB00BF4DF808EDD6
:10258000FFF7E0FF94BF012000205DF808FB00BFCB
:102590004DF808EDFFF7D2FF94BF012000205DF851
:1025A00008FB00BF4DF808EDFFF7C8FF34BF01205E
:1025B00000205DF808FB00BF4FEA4002B2F1FE4F79
:1025C0000FD34FF09E03B3EB12620DD94FEA0023F5
:1025D00043F0004310F0004F23FA02F018BF4042CE
:1025E00070474FF00000704712F1610F01D14202B5
:1025F00005D110F0004008BF6FF0004070474FF069
:1026000000007047014B1868704700BF5C00002055
:10261000931E222B10B50C4604D900230B701C46C8
:10262000204610BD0A2A09D1002807DA2D230B7095
:1026300040420121214400F005F8F1E70021F9E7CB
:10264000FFF7E6BFF0B51D4B8BB005460C466E4656
:1026500003F1200C18685968374603C708336345EF
:102660003E46F7D118681B793B71931E222B3860C8
:102670004FF0000304D923701C4620460BB0F0BD78
:10268000661EB5FBF2F00AAF02FB10553D44591C23
:1026900015F8285C06F8015F054668B960542344C4
:1026A0002246191B101B8142E7DD1178187802F8C9
:1026B000010B03F80119F4E70B46E2E7C8D3000861
:1026C00030B5141E05469BB0184605DA8B232B60E7
:1026D0004FF0FF301BB030BD4FF40273ADF80C303B
:1026E00014BF04F1FF332346029305934FF6FF73A3
:1026F00000910491ADF80E3002461E9B69462846B3
:1027000000F072F8431CBCBF8B232B60002CE1D07F
:10271000009B00221A70DDE707B5009313460A46B6
:10272000014603480068FFF7CBFF03B05DF804FBE8
:102730005C0000202DE9F0478E689E4282460C46E0
:102740009046994637D88A8912F4906F31D025681F
:1027500009696F1A6569022305EB450595FBF3F5D9
:1027600009F101033B449D4238BF1D46530530D556
:10277000294600F07FFB064650B90C23CAF800300A
:10278000A38943F04003A3814FF0FF30BDE8F087F9
:102790003A46216900F0FCFAA38923F4906343F0E0
:1027A0008003A381266165613E44ED1B2660A56020
:1027B0004E464E4500D94E4632464146206800F00E
:1027C000F2FAA3689B1BA36023681E4426600020C6
:1027D000DCE72A4600F0A8FB06460028E2D1216982
:1027E000504600F0F9FAC8E72DE9F04F9DB0804659
:1027F00003938B891D060C4616460FD50B696BB9E2
:10280000402100F037FB2060206128B90C23C8F874
:1028100000304FF0FF30C7E040236361002309938D
:1028200020238DF8293030238DF82A304FF0010B0A
:1028300037463D4615F8013B0BB1252B3ED1B7EB92
:10284000060A0BD05346324621464046FFF772FF38
:10285000013000F0A480099B534409933B78002B7E
:1028600000F09D8000234FF0FF32CDE90523049353
:1028700007938DF853301A932F46052217F8011B42
:102880004F4800F035FA049BD0B9D90644BF202246
:102890008DF853201A0744BF2B228DF853202A7835
:1028A0002A2A15D0079A2F4600200A25394611F802
:1028B000013B303B092B4DD9B8B10FE02F46B8E7AB
:1028C0003F4A801A0BFA00F0184304903D46D3E7C4
:1028D000039A111D12680391002A01DB079204E09C
:1028E000524243F00203079204933B782E2B0CD103
:1028F0007B782A2B33D1039B1A1D1B680392002B74
:10290000B8BF4FF0FF33023705932E4D39780322BD
:10291000284600F0EDF938B14023401B03FA00F0DF
:10292000049B034301370493397827488DF8281016
:1029300006227E1C00F0DCF9002838D0234B13BBA4
:10294000039B073323F0070308330393099B4B448E
:1029500009936DE705FB023201200F46A6E700232D
:102960000137059319460A25384610F8012B303AED
:10297000092A03D9002BC8D00591C6E705FB012120
:1029800001230746F0E703AB00932246104B04A94E
:102990004046AFF30080B0F1FF3F8146D6D1A38916
:1029A0005B063FF536AF09981DB0BDE8F08F03AB6D
:1029B00000932246064B04A9404600F081F8EAE75E
:1029C000EDD30008F3D30008F7D30008000000009F
:1029D000352700082DE9F04791461F468A680B69A4
:1029E000DDF820809342B8BF1346C9F8003091F853
:1029F000432006460C4612B10133C9F80030236863
:102A0000990642BFD9F800300233C9F80030256872
:102A100015F0060507D104F1190AE368D9F800207A
:102A20009B1AAB4228DC94F843302268003318BF6D
:102A3000012392062DD404F1430239463046C047A3
:102A4000013020D02368E568D9F8002003F00603A0
:102A5000042B08BFAD1AA36822690CBF25EAE575EF
:102A600000259342C4BF9B1AED184FF000091A3499
:102A70004D451AD1002008E0012352463946304620
:102A8000C047013003D14FF0FF30BDE8F08701357A
:102A9000C3E7E1185A1C302081F84300224494F81F
:102AA000451082F843100233C5E701232246394618
:102AB0003046C0470130E6D009F10109D8E70000EF
:102AC0002DE9F04301F1430C0C46097E85B06E29D7
:102AD0001746064698460C9A00F0B38022D8632920
:102AE00036D00AD8002900F0B980582900F0838038
:102AF00004F1420584F8421032E0642901D06929CA
:102B0000F6D120681368050603F104012AD51B6875
:102B10001160002B03DA2D225B4284F843206F48BA
:102B20000A2239E0732900F09D8008D86F2920D04F
:102B30007029DDD1236843F02003236003E0752969
:102B400017D07829D4D1782384F84530644855E0EB
:102B50001368191D1B68116004F1420584F84230A6
:102B600001238CE01B68116010F0400F18BF1BB2EE
:102B7000CFE713682568181D1060280601D51B686B
:102B800002E06806FBD51B8854486F2914BF0A224F
:102B90000822002184F843106568A560002DC0F26A
:102BA0009580216821F004012160002B3DD1002D8A
:102BB00040F08E806546082A0BD12368DB0708D5D4
:102BC000236962689A42DEBF302305F8013C05F1B3
:102BD000FF35ACEB05032361CDF800803B4603AA2B
:102BE00021463046FFF7F6FE01304DD14FF0FF3061
:102BF00005B0BDE8F083394884F8451013682168B2
:102C00001D1D1B6815600A060BD5CA0744BF41F09D
:102C1000200121601BB9226822F0200222601022CC
:102C2000B7E74D0648BF9BB2EFE76546B3FBF2F14D
:102C300002FB1133C35C05F8013D0B460029F5D1B9
:102C4000B9E7136825686169181D106028061B68BC
:102C500001D5196002E06A06FBD5198000232361C3
:102C60006546B9E71368191D11601D686268002187
:102C7000284600F03DF808B1401B6060636823619E
:102C8000002384F84330A7E723692A4639463046B3
:102C9000C0470130AAD023689B0713D4E068039B88
:102CA0009842B8BF1846A3E701234A463946304642
:102CB000C04701309AD00135E368039A9B1AAB42B2
:102CC000F2DCEBE7002504F11909F5E7002BACD1A4
:102CD000037884F8423004F142056CE7FED3000823
:102CE0000FD40008000000000000000000000000F9
:102CF00001F0FF01102A2BDB10F0070F08D010F8AD
:102D0000013B013A8B422DD010F0070F42B3F6D1B0
:102D1000F0B441EA012141EA014122F007047FF0C9
:102D200000070023F0E80256083C85EA010586EA20
:102D3000010685FA47F5A3FA87F586FA47F6A5FA5C
:102D400087F68EB9EED1F0BC01F0FF0102F0070268
:102D500032B110F8013B013A83EA010313B1F8D113
:102D60000020704701387047002D06BF35460338F4
:102D7000073815F0010F07D1013015F4807F02BF2D
:102D8000013015F4C03F0130F0BC0138704700BF7E
:102D900010B5431E0A44914200D110BD11F8014BF9
:102DA00003F8014FF7E7884210B501EB020307D89B
:102DB000421E99420AD011F8014B02F8014FF8E780
:102DC0008342F5D98118D21AD34200D110BD13F82D
:102DD000014D01F8014DF7E738B50546002945D00A
:102DE00051F8043C0C1F002BB8BFE41800F0D2F8D7
:102DF0001F4A1368104633B9636014602846BDE863
:102E0000384000F0C8B8A3420CD921686218934238
:102E100004BF1A685B68636004BF521822600460D4
:102E2000ECE713465A680AB1A242FAD91968581851
:102E3000A0420BD120680144581882421960DDD1AC
:102E4000106852685A6001441960D7E702D90C2310
:102E50002B60D3E7206821188A4204BF11685268AA
:102E6000626004BF091821605C60C7E738BD00BF1D
:102E70007401002070B5CD1C25F0030508350C2D1C
:102E800038BF0C25002D064601DBA94203D90C23CF
:102E90003360002070BD00F07DF8214A146821469F
:102EA00091B9204C23681BB9304600F063F82060CC
:102EB0002946304600F05EF8431C24D10C233360D1
:102EC000304600F068F8E4E70B685B1B18D40B2B66
:102ED0000FD90B60CD50CC18304600F05CF804F1EF
:102EE0000B00231D20F00700C31AD3D05A42E25032
:102EF000D0E78C424B6816BF636013600C46EBE76B
:102F00000C464968CCE7C41C24F00304A04205D059
:102F1000211A304600F02EF80130CFD02560DBE7D3
:102F20007401002078010020F8B5074614460E46CB
:102F300021B91146BDE8F840FFF79CBF22B9FFF761
:102F40004BFF25462846F8BD00F026F8A0420FD2D8
:102F500021463846FFF78EFF05460028F2D031465D
:102F60002246FFF715FF31463846FFF735FFE9E700
:102F70003546E7E738B5064C00230546084623608A
:102F8000FDF748FA431C02D1236803B12B6038BD1A
:102F90007C0100207047704751F8043C181F002B3B
:102FA000BCBF0B58C0187047537461636B206672C6
:102FB000616D653A0A000000205230203D20202536
:102FC0003038580A00000000205231203D202025D2
:102FD0003038580A00000000205232203D202025C1
:102FE0003038580A00000000205233203D202025B0
:102FF0003038580A0000000020523132203D202590
:103000003038580A00000000204C52203D20202576
:103010003038580A00000000205043203D20202571
:103020003038580A0000000020505352203D20251F
:103030003038580A000000004653522F4641523A99
:103040000A0000002043465352203D2020253038FE
:10305000580A00002048465352203D202025303891
:10306000580A00002044465352203D202025303885
:10307000580A00002041465352203D202025303878
:10308000580A0000204D4D464152203D2025303841
:10309000580A00002042464152203D202025303869
:1030A000580A00004D6973630A000000204C522F3B
:1030B0004558435F52455455524E3D2025303858AF
:1030C0000A0000005B486172644661756C745D0AB9
:1030D000000000005B4275734661756C745D0A0008
:1030E0005B55736167654661756C745D0A0000002D
:1030F00041542B43495053454E443D0047455420CD
:1031000068747470733A2F2F6170692E7468696ED9
:1031100067737065616B2E636F6D2F75706461747A
:10312000653F6170695F6B65793D000026000000B6
:1031300041542B43574A41505F4355523D220000B2
:10314000222C2200220D0A0041542B434950535493
:103150004152543D22544350222C000022000000D2
:10316000222C38300D0A0000415445310D0A000070
:10317000415445300D0A000041542B43574D4F44F4
:10318000455F4355523D330D0A000000000000002A
:1031900000005C0000000000060006000000287C23
:1031A000287C28005C54FE5474004420100844001D
:1031B000285454205000060000000000384400004D
:1031C0000000443800000000020702000000101058
:1031D0007C101000C0000000000010101010100043
:1031E00040000000000060100C0000007C64544CA3
:1031F0007C00487C4000000064545454480044540F
:1032000054546C003C20702020005C545454240022
:103210007C5454547400040464140C007C545454BE
:103220007C005C5454547C00440000000000C40046
:10323000000000001028440000002828282828004A
:103240004428100000000804540800007C44545432
:103250005C007C2424247C007C5454546C007C440A
:10326000444444007C44444438007C545454440056
:103270007C14141404007C44445474007C1010101A
:103280007C0044447C444400604040447C007C100A
:10329000102844007C40404040007C0810087C001E
:1032A0007C0810207C003844444438007C141414FA
:1032B00008003C2464243C007C14141468005C5412
:1032C0005454740004047C0404007C4040407C009E
:1032D0000C3040300C003C4030403C00442810286A
:1032E00044000C1060100C004464544C44007C44B6
:1032F000000000000C1060000000447C0000000092
:10330000000100010000404040404040000100003A
:1033100000007C2424247C007C5454546C007C44A5
:10332000444444007C44444438007C545454440095
:103330007C14141404007C44445474007C10101059
:103340007C0044447C444400604040447C007C1049
:10335000102844007C40404040007C0810087C005D
:103360007C0810207C003844444438007C14141439
:1033700008003C2464243C007C14141468005C5451
:103380005454740004047C0404007C4040407C00DD
:103390000C3040300C003C4030403C0044281028A9
:1033A00044000C1060100C004464544C4400107C29
:1033B000440000006C0000000000447C100000008D
:1033C00002010201000000000000000001010100F4
:1033D00000010000000000006170692E7468696ED1
:1033E00067737065616B2E636F6D0000FFFFFFFFF9
:1033F000FFFFFFFFFFFFFFFFFFFFFFFFFFFFFFFFDD
:10340000FFFFFFFFFFFFFFFFFFFFFFFFFFFFFFFFCC
:10341000FFFFFFFFFFFFFFFFFFFFFFFFFFFFFFFFBC
:10342000FFFFFFFFFFFFFFFFFFFFFFFFFFFFFFFFAC
:103B5000FFFFFFFFFFFFFFFFDFFFDFFFFFFFDFFFD5
:103B6000FFFFFFFFFFFFFFFFFFFFFFFFFFFFFFFF65
:103B7000FFFFFFFFFFFFFFFFFFFFFFFFFFFFFFFF55
:103B8000FFFFFFFFFFFFFFFFFFFFFFFFFFFFFFFF45
:103B9000FFFFFFFFFFFFFFFFFFFFFFFFFFFFFFFF35
:103BA000FFFFFFFFFFFFFFFFFFFFFFFFFFFFFFFF25
:103BB000FFFFFFFFFFFFFFFFFFFFFFFFFFFFFFFF15
:103BC000FFFFFFFFFFFFFFFFFFFFFFFFFFFFFFFF05
:103BD000FFFFFFFFFFFFFFFFFFFFFFFFFFFFFFFFF5
:103BE000FFFFFFFFFFFFFFFFFFFFFFFFFFFFFFFFE5
:103BF000FFFFFFFFFFFFFFFFFFFFFFFFFFFFFFFFD5
:103C0000FFFFFFFFFFFFFFFFFFFFFFFFFFFFFFFFC4
:103C1000FFFFFFFFFFFFFFFFFFFFFFFFFFFFFFFFB4
:103C2000FFFFFFFFFFFFFFFFFFFFFFFFFFFFFFFFA4
:103C3000FFFFFFFFFFFFFFFFFFFFFFFFFFFFFFFF94
:103C4000FFFFFFFFFFFFFFFFFFFFFFFFFFFFFFFF84
:103C5000FFFFDFFFDFFFDFFFDFFFDFFFDFFFBEF77D
:103C6000DFFFFFFFFFFFFFFFFFFFFFFFFFFFFFFF84
:103C7000FFFFFFFFFFFFFFFFFFFFFFFFFFFFFFFF54
:103C8000FFFFFFFFFFFFFFFFFFFFFFFFFFFFFFFF44
:103C9000FFFFFFFFFFFFFFFFFFFFFFFFFFFFFFFF34
:103CA000FFFFFFFFFFFFFFFFFFFFFFFFFFFFFFFF24
:103CB000FFFFFFFFFFFFFFFFFFFFFFFFFFFFFFFF14
:103CC000FFFFFFFFFFFFFFFFFFFFFFFFFFFFFFFF04
:103CD000FFFFFFFFFFFFFFFFFFFFFFFFFFFFFFFFF4
:103CE000FFFFFFFFFFFFFFFFFFFFFFFFFFFFFFFFE4
:103CF000FFFFFFFFFFFFFFFFFFFFFFFFFFFFFFFFD4
:103D0000FFFFFFFFFFFFFFFFFFFFFFFFFFFFFFFFC3
:103D1000FFFFFFFFFFFFFFFFFFFFFFFFFFFFFFFFB3
:103D2000FFFFFFFFFFFFFFFFFFFFFFFFFFFFFFFFA3
:103D3000FFFFFFFFFFFFFFFFFFFFFFFFFFFFFFFF93
:103D4000FFFFFFFFFFFFFFFFFFFFFFFFFFFFDFFFA3
:103D5000DFFFDFFFDFFFBEF7BEF7BEF7BEF79EF760
:103D6000DFFFFFFFFFFFFFFFFFFFFFFFFFFFFFFF83
:103D7000FFFFFFFFFFFFFFFFFFFFFFFFFFFFFFFF53
:103D8000FFFFFFFFFFFFFFFFFFFFFFFFFFFFFFFF43
:103D9000FFFFFFFFFFFFFFFFFFFFFFFFFFFFFFFF33
:103DA000FFFFFFFFFFFFFFFFFFFFFFFFFFFFFFFF23
:103DB000FFFFFFFFFFFFFFFFFFFFFFFFDFFFFFFF33
:103DC000DFFFDFFFFFFFFFFFFFFFFFFFFFFFFFFF43
:103DD000FFFFFFFFFFFFFFFFFFFFFFFFFFFFFFFFF3
:103DE000FFFFFFFFFFFFFFFFFFFFFFFFFFFFFFFFE3
:103DF000FFFFFFFFFFFFFFFFFFFFFFFFFFFFFFFFD3
:103E0000FFFFFFFFFFFFFFFFFFFFFFFFFFFFFFFFC2
:103E1000FFFFFFFFFFFFFFFFFFFFDFFFFFFFFFFFD2
:103E2000FFFFFFFFFFFFFFFFFFFFFFFFFFFFFFFFA2
:103E3000FFFFFFFFFFFFFFFFFFFFDFFFFFFFFFFFB2
:103E4000DFFFDFFFDFFFDFFFDFFFDFFFDFFFBEF7AB
:103E5000BEF7BEF79EF79EF79EF77DEF7DEF7DEFF5
:103E6000BEF7FFFFFFFFFFFFFFFFFFFFFFFFFFFFAB
:103E7000FFFFFFFFFFFFFFFFFFFFFFFFFFFFFFFF52
:103E8000FFFFFFFFFFFFFFFFFFFFFFFFFFFFFFFF42
:103E9000FFFFFFFFFFFFFFFFFFFFFFFFFFFFFFFF32
:103EA000FFFFFFFFFFFFFFFFFFFFFFFFFFFFFFFF22
:103EB000FFFFFFFFFFFFFFFFFFFFFFFFDFFFDFFF52
:103EC000DFFFDFFFFFFFFFFFFFFFFFFFDFFFFFFF62
:103ED000FFFFFFFFFFFFFFFFFFFFFFFFFFFFFFFFF2
:103EE000FFFFFFFFFFFFFFFFFFFFFFFFFFFFFFFFE2
:103EF000FFFFFFFFFFFFFFFFFFFFFFFFFFFFFFFFD2
:103F0000FFFFFFFFFFFFFFFFFFFFFFFFFFFFFFFFC1
:103F1000FFFFDFFFDFFFDFFFDFFFDFFFDFFFDFFF91
:103F2000DFFFDFFFDFFFFFFFFFFFFFFFDFFFDFFF41
:103F3000DFFFDFFFFFFFFFFFDFFFDFFFDFFFDFFF51
:103F4000DFFFDFFFBEF7BEF7BEF7BEF7BEF79EF797
:103F50009EF77DEF7DEF7DEF5DEF5DEF5DEF5DEF58
:103F6000BEF7FFFFFFFFFFFFFFFFDFFFFFFFFFFFCA
:103F7000FFFFDFFFDFFFFFFFFFFFFFFFFFFFFFFF91
:103F8000FFFFFFFFFFFFFFFFFFFFFFFFFFFFFFFF41
:103F9000FFFFFFFFFFFFFFFFFFFFFFFFFFFFFFFF31
:103FA000FFFFFFFFFFFFFFFFFFFFFFFFFFFFFFFF21
:103FB000FFFFFFFFFFFFFFFFFFFFDFFFDFFFDFFF71
:103FC000BEF7BEF7FFFFFFFFFFFFFFFFDFFFDFFFD3
:103FD000FFFFFFFFFFFFFFFFFFFFFFFFFFFFFFFFF1
:103FE000FFFFFFFFFFFFFFFFFFFFFFFFFFFFFFFFE1
:103FF000FFFFFFFFFFFFFFFFFFFFFFFFFFFFFFFFD1
:10400000FFFFFFFFFFFFFFFFFFFFFFFFFFFFFFFFC0
:10401000DFFFBEF7BEF7DFFFDFFFDFFFDFFFDFFF02
:10402000DFFFDFFFDFFFDFFFDFFFDFFFDFFFDFFFA0
:10403000DFFFDFFFDFFFDFFFDFFFBEF7BEF7BEF70B
:10404000BEF7BEF79EF79EF79EF79EF77DEF7DEFDA
:104050005DEF5DEF5DEF5DEF3CE73CE71CE73CE7C4
:10406000BEF7FFFFFFFFDFFFFFFFDFFFFFFFDFFF09
:10407000DFFFDFFFDFFFDFFFFFFFFFFFFFFFFFFFD0
:10408000FFFFFFFFFFFFFFFFFFFFFFFFFFFFFFFF40
:10409000FFFFFFFFFFFFFFFFFFFFFFFFFFFFFFFF30
:1040A000FFFFFFFFFFFFFFFFFFFFFFFFFFFFFFFF20
:1040B000FFFFFFFFFFFFFFFFDFFFDFFFDFFFBEF7B9
:1040C000BEF7BEF7DFFFFFFFDFFFDFFFDFFFDFFF32
:1040D000FFFFFFFFFFFFFFFFFFFFFFFFFFFFFFFFF0
:1040E000FFFFFFFFFFFFFFFFFFFFFFFFFFFFFFFFE0
:1040F000FFFFFFFFFFFFFFFFFFFFFFFFFFFFFFFFD0
:10410000FFFFFFFFFFFFFFFFFFFFFFFFFFFFFFFFBF
:10411000DFFFBEF79EF7BEF7DFFFBEF7BEF7BEF7C5
:10412000BEF7BEF7BEF7DFFFDFFFDFFFBEF7BEF76C
:10413000BEF7BEF7BEF7BEF79EF79EF79EF77DEF80
:104140007DEF7DEF7DEF5DEF5DEF5DEF3CE73CE701
:104150003CE73CE71CE71CE71CE71CE7FBDE3CE711
:104160009EF7FFFFDFFFDFFFDFFFDFFFDFFFDFFF88
:10417000BEF7BEF7DFFFDFFFFFFFFFFFFFFFFFFF21
:10418000FFFFFFFFFFFFFFFFFFFFFFFFFFFFFFFF3F
:10419000FFFFFFFFFFFFFFFFFFFFFFFFFFFFFFFF2F
:1041A000FFFFFFFFFFFFFFFFFFFFFFFFFFFFFFFF1F
:1041B000DFFFFFFFFFFFFFFFDFFFBEF7BEF7BEF72A
:1041C0009EF79EF7DFFFFFFFDFFFDFFFDFFFDFFF71
:1041D000DFFFFFFFFFFFFFFFFFFFFFFFFFFFFFFF0F
:1041E000FFFFFFFFFFFFFFFFFFFFFFFFFFFFFFFFDF
:1041F000FFFFFFFFFFFFFFFFFFFFFFFFFFFFFFFFCF
:10420000FFFFFFFFFFFFFFFFFFFFFFFFFFFFFFFFBE
:10421000DFFF9EF77DEF9EF7BEF79EF79EF79EF7B6
:10422000BEF7BEF7BEF7BEF7BEF7BEF7BEF7BEF7E6
:104230009EF79EF79EF79EF77DEF7DEF5DEF5DEFBA
:104240005DEF5DEF3CE73CE73CE71CE71CE71CE764
:104250001CE7FBDEFBDEFBDEFBDEDBDEDBDE1CE782
:104260009EF7FFFFDFFFBEF7DFFFDFFFBEF7BEF702
:10427000BEF7BEF7BEF7DFFFFFFFFFFFFFFFFFFF49
:10428000FFFFFFFFFFFFFFFFFFFFFFFFFFFFFFFF3E
:10429000FFFFFFFFFFFFFFFFFFFFFFFFFFFFFFFF2E
:1042A000FFFFFFFFFFFFFFFFDFFFDFFFDFFFDFFF9E
:1042B000DFFFFFFFFFFFFFFFDFFFBEF7BEF79EF749
:1042C0007DEF9EF7DFFFDFFFDFFFDFFFDFFFDFFFB9
:1042D000DFFFFFFFFFFFFFFFFFFFFFFFFFFFFFFF0E
:1042E000FFFFFFFFFFFFFFFFFFFFFFFFFFFFFFFFDE
:1042F000FFFFFFFFFFFFFFFFFFFFFFFFFFFFFFFFCE
:10430000FFFFFFFFFFFFFFFFFFFFFFFFFFFFFFFFBD
:10431000BEF75DEF7DEF5DEF9EF77DEF7DEF9EF7E2
:104320009EF79EF79EF79EF79EF77DEF7DEF7DEF60
:104330007DEF7DEF7DEF5DEF5DEF3CE73CE73CE738
:104340001CE71CE7FBDEFBDEFBDEFBDEDBDEFBDE71
:10435000FBDEDBDEBAD6DBDEDBDEBAD69AD65DEF7D
:10436000DFFFDFFFBEF7BEF7BEF7BEF7BEF7BEF753
:10437000BEF79EF7BEF7DFFFFFFFFFFFFFFFFFFF68
:10438000FFFFDFFFDFFFFFFFDFFFFFFFFFFFFFFF9D
:10439000DFFFDFFFDFFFDFFFDFFFDFFFDFFFFFFF0D
:1043A000DFFFDFFFFFFFDFFFDFFFDFFFDFFFDFFFFD
:1043B000BEF7DFFFDFFFDFFFDFFFBEF79EF79EF7F1
:1043C0005DEF9EF7DFFFBEF7DFFFDFFFBEF7DFFF2A
:1043D000FFFFFFFFFFFFFFFFFFFFFFFFFFFFFFFFED
:1043E000FFFFFFFFFFFFFFFFFFFFFFFFFFFFFFFFDD
:1043F000FFFFFFFFFFFFFFFFFFFFFFFFFFFFFFFFCD
:10440000FFFFFFFFFFFFFFFFFFFFFFFFFFFFFFFFBC
:10441000DFFF3CE73CE73CE75DEF5DEF5DEF5DEF25
:104420005DEF5DEF5DEF5DEF5DEF5DEF5DEF5DEF2C
:104430005DEF5DEF5DEF3CE71CE71CE7FBDEFBDEBD
:10444000FBDEDBDEDBDEDBDEDBDEBAD6DBDEBAD6D6
:10445000BAD6BAD6BAD69AD69AD6BAD69AD65DEF80
:10446000DFFFBEF7BEF7BEF7BEF7BEF79EF79EF7BB
:104470009EF79EF7BEF7FFFFFFFFFFFFFFFFDFFF87
:10448000FFFFDFFFFFFFFFFFFFFFDFFFDFFFFFFF9C
:10449000FFFFFFFFFFFFFFFFFFFFFFFFDFFFFFFF4C
:1044A000DFFFDFFFFFFFFFFFDFFFDFFFDFFFFFFFBC
:1044B000FFFFDFFFDFFFDFFFBEF79EF7BEF75DEF19
:1044C0005DEF9EF7DFFFBEF7BEF7DFFFBEF7DFFF52
:1044D000FFFFFFFFFFFFFFFFFFFFFFFFFFFFFFFFEC
:1044E000FFFFFFFFFFFFFFFFFFFFFFFFFFFFFFFFDC
:1044F000FFFFFFFFFFFFFFFFFFFFFFFFFFFFFFFFCC
:10450000FFFFFFFFFFFFFFFFFFFFFFFFFFFFFFFFBB
:10451000FFFF1CE7FBDE3CE71CE71CE71CE71CE792
:104520001CE71CE71CE71CE71CE71CE71CE71CE773
:104530001CE71CE71CE7FBDEFBDEDBDEDBDEDBDE95
:10454000BAD6BAD6BAD6BAD6BAD69AD6BAD69AD62B
:104550009AD69AD69AD679CE79CE79CEBAD67DEF3A
:10456000DFFF9EF77DEF9EF79EF77DEF7DEF7DEFFE
:104570007DEF9EF7DFFFFFFFFFFFDFFFFFFFFFFF86
:10458000FFFFDFFFDFFFDFFFDFFFDFFFDFFFDFFF1B
:10459000DFFFDFFFDFFFBEF7BEF7DFFFBEF7DFFFA6
:1045A000BEF7BEF7BEF7BEF7BEF7FFFFDFFFDFFFC8
:1045B000BEF7DFFFDFFFDFFFBEF79EF7BEF71CE7AA
:1045C0005DEFBEF7DFFFBEF7BEF7BEF7BEF7DFFF5A
:1045D000FFFFFFFFFFFFFFFFFFFFFFFFFFFFFFFFEB
:1045E000FFFFFFFFFFFFFFFFFFFFFFFFFFFFFFFFDB
:1045F000FFFFFFFFFFFFFFFFFFFFFFFFFFFFFFFFCB
:10460000FFFFFFFFFFFFFFFFFFFFFFFFFFFFFFFFBA
:10461000FFFF1CE7BAD61CE7FBDEFBDEFBDEFBDEA2
:10462000FBDEFBDEFBDEFBDEFBDEFBDEFBDEFBDEC2
:10463000FBDEDBDEDBDEDBDEBAD6BAD6BAD6BAD636
:10464000BAD6BAD69AD69AD69AD69AD679CE9AD6D3
:104650009AD659CE59CE79CE79CE38C61CE77DEFA1
:10466000BEF77DEF7DEF9EF77DEF7DEF9EF75DEF6F
:104670005DEFBEF7FFFFFFFFDFFFDFFFDFFFDFFFC5
:10468000DFFF7DEF1CE71CE71CE75DEF3CE71CE765
:10469000FBDEFBDEDBDEDBDEBAD6BAD6DBDE1CE71A
:1046A0003CE7FBDEBAD69AD6FBDEBEF7DFFFBEF7ED
:1046B000BEF7DFFFDFFF9EF79EF7BEF77DEFDBDE85
:1046C0005DEFDFFFBEF7DFFFBEF79EF7DFFFDFFF27
:1046D000FFFFFFFFFFFFFFFFFFFFFFFFFFFFFFFFEA
:1046E000FFFFFFFFFFFFFFFFFFFFFFFFFFFFFFFFDA
:1046F000FFFFFFFFFFFFFFFFFFFFFFFFFFFFFFFFCA
:10470000FFFFFFFFFFFFFFFFFFFFFFFFFFFFFFFFB9
:10471000FFFF3CE79AD6DBDEBAD6DBDEDBDEDBDE94
:10472000DBDEDBDEDBDEDBDEDBDEDBDEDBDEDBDEC1
:10473000BAD6BAD6BAD6BAD69AD69AD69AD69AD679
:1047400079CE79CE79CE79CE79CE79CE59CE79CE51
:1047500079CE59CE59CE59CE79CE59CE7DEF7DEF57
:104760007DEF7DEF7DEF7DEF5DEF5DEF5DEF5DEF69
:104770007DEF9EF7BEF7DFFFDFFFDFFFDFFFDFFF2D
:10478000DFFF5DEFDBDEBAD6BAD6DBDE3CE7FBDE71
:10479000BAD69AD69AD69AD679CE79CE9AD6DBDE82
:1047A0003CE7DBDE79CE59CEDBDEFFFFBEF7DFFF75
:1047B000FFFFDFFF9EF79EF79EF7DFFFFBDEDBDEEE
:1047C000BEF7DFFF9EF7BEF7BEF7BEF7FFFFFFFFA6
:1047D000FFFFFFFFFFFFFFFFFFFFFFFFFFFFFFFFE9
:1047E000FFFFFFFFFFFFFFFFFFFFFFFFFFFFFFFFD9
:1047F000FFFFFFFFFFFFFFFFFFFFFFFFFFFFFFFFC9
:10480000FFFFFFFFFFFFFFFFFFFFFFFFFFFFFFFFB8
:10481000FFFF5DEF9AD69AD69AD69AD69AD69AD6AE
:104820009AD69AD69AD69AD69AD69AD6BAD69AD6E8
:104830009AD69AD69AD69AD69AD679CE79CE79CE73
:1048400079CE79CE79CE79CE59CE59CE79CE59CE90
:1048500059CE59CE59CE38C659CEDBDE9EF77DEF04
:104860005DEF5DEF7DEF5DEF3CE75DEFFBDE7DEF44
:104870009EF77DEF7DEFBEF7DFFFDFFFDFFFDFFF9E
:10488000DFFF7DEFFBDEBAD69AD6BAD6FBDEDBDEE3
:104890009AD679CE79CE79CE79CE59CE59CE79CEF7
:1048A000DBDEBAD659CE59CEBAD6BEF79EF7DFFFB9
:1048B000DFFF9EF79EF7DFFFBEF73CE779CE3CE7D0
:1048C000DFFFDFFF9EF79EF7BEF7DFFFFFFFFFFF73
:1048D000FFFFFFFFFFFFFFFFFFFFFFFFFFFFFFFFE8
:1048E000FFFFFFFFFFFFFFFFFFFFFFFFFFFFFFFFD8
:1048F000FFFFFFFFFFFFFFFFFFFFFFFFFFFFFFFFC8
:10490000FFFFFFFFFFFFFFFFFFFFFFFFFFFFFFFFB7
:10491000FFFFBEF7BAD679CE79CE79CE79CE79CEF1
:1049200079CE79CE79CE79CE79CE79CE79CE79CE4F
:1049300079CE79CE79CE79CE79CE59CE59CE59CE9F
:1049400059CE59CE59CE59CE59CE59CE59CE38C658
:1049500038C659CE38C618C69AD65DEF7DEF7DEFC2
:104960005DEF3CE75DEF3CE73CE73CE73CE7BEF74B
:10497000FFFF9EF73CE75DEF9EF7BEF7BEF7BEF781
:10498000BEF75DEFDBDE9AD679CE9AD6DBDEBAD6FD
:1049900079CE79CE59CE59CE59CE59CE59CE38C6C8
:1049A0009AD679CE38C638C679CE5DEF9EF79EF797
:1049B0007DEF7DEFBEF7DFFF3CE79AD6DBDE9EF7AB
:1049C000DFFF9EF7BEF7BEF7DFFFFFFFFFFFFFFF32
:1049D000FFFFFFFFFFFFFFFFFFFFFFFFFFFFFFFFE7
:1049E000FFFFFFFFFFFFFFFFFFFFFFFFFFFFFFFFD7
:1049F000FFFFFFFFFFFFFFFFFFFFFFFFFFFFFFFFC7
:104A0000FFFFFFFFFFFFFFFFFFFFFFFFFFFFFFFFB6
:104A1000FFFFFFFFDBDE59CE59CE79CE59CE59CEFE
:104A200059CE59CE59CE59CE59CE59CE59CE59CE4E
:104A300059CE59CE59CE59CE59CE59CE59CE59CE3E
:104A400059CE59CE59CE59CE38C638C638C638C6D2
:104A500038C638C618C659CEFBDEBEF73CE75DEF58
:104A60005DEF1CE73CE73CE73CE71CE7BEF7DFFFF8
:104A7000FFFFFFFF5DEFFBDE3CE7DFFFBEF7DFFF81
:104A8000DFFF5DEFDBDE9AD679CEBAD6BAD6BAD6DC
:104A90009AD679CE59CE59CE38C638C679CE38C6D0
:104AA00079CE38C618C6F7BD38C63CE79EF77DEF0D
:104AB0009EF7DFFF9EF7FBDE79CE18C65DEFFFFFA6
:104AC0009EF77DEFFFFFFFFFDFFFFFFFFFFFFFFF11
:104AD000FFFFFFFFFFFFFFFFFFFFFFFFFFFFFFFFE6
:104AE000FFFFFFFFFFFFFFFFFFFFFFFFFFFFFFFFD6
:104AF000FFFFFFFFFFFFFFFFFFFFFFFFFFFFFFFFC6
:104B0000FFFFFFFFFFFFFFFFFFFFFFFFFFFFFFFFB5
:104B1000FFFFFFFF7DEF59CE38C679CE59CE38C69C
:104B200059CE59CE38C659CE59CE38C659CE38C6C8
:104B300038C638C659CE59CE38C638C618C638C653
:104B400038C638C638C638C638C638C618C618C6B5
:104B500038C618C638C61CE79EF75DEF1CE73CE771
:104B60003CE71CE71CE71CE73CE7DFFFFFFFFFFF1C
:104B7000FFFFDFFFBEF73CE79AD61CE75DEF9EF72D
:104B80009EF77DEFDBDE9AD6BAD6DBDEDBDEBAD669
:104B9000BAD659CE38C659CE38C659CE79CE79CE86
:104BA00079CE38C638C659CE18C6DBDE5DEF1CE7B5
:104BB000FBDEFBDE18C6D7BD38C67DEFFFFF9EF7D4
:104BC000DFFFFFFFDFFFFFFFFFFFDFFFFFFFFFFF55
:104BD000FFFFFFFFFFFFFFFFFFFFFFFFFFFFFFFFE5
:104BE000FFFFFFFFFFFFFFFFFFFFFFFFFFFFFFFFD5
:104BF000FFFFFFFFFFFFFFFFFFFFFFFFFFFFFFFFC5
:104C0000FFFFFFFFFFFFFFFFFFFFFFFFDFFFFFFFD4
:104C1000DFFFFFFFFFFF1CE759CED7BD38C638C600
:104C200038C638C638C618C618C659CE38C638C6AB
:104C300038C638C638C618C618C618C638C618C604
:104C4000F7BDF7BD18C638C659CE59CEBAD659CE1B
:104C5000D7BD18C69AD65DEF1CE7FBDE3CE73CE704
:104C60005DEF5DEFBEF7FFFFDFFFFFFFFFFF9EF78A
:104C7000FFFFFFFFDFFFBEF79EF7BAD6DBDE9AD657
:104C8000DBDEBEF7DBDE9AD6FBDEDBDEBAD6BAD6DB
:104C9000DBDEDBDE9AD69AD638C6BEF75DEF79CE7C
:104CA00079CE18C696B596B5D7BDFBDEFBDE3CE7E0
:104CB0003CE7FBDEBAD69AD65DEFFFFFBEF7FFFFFB
:104CC000DFFFFFFFDFFFFFFFFFFFFFFFFFFFFFFF34
:104CD000FFFFFFFFFFFFFFFFFFFFFFFFFFFFFFFFE4
:104CE000FFFFFFFFFFFFFFFFFFFFFFFFFFFFFFFFD4
:104CF000FFFFFFFFFFFFFFFFFFFFFFFFFFFFFFFFC4
:104D0000FFFFFFFFFFFFFFFFFFFFFFFFFFFFFFFFB3
:104D1000FFFFDFFFFFFF9EF7DBDE79CE18C638C648
:104D200018C618C638C638C6F7BDD7BDF7BDF7BD1B
:104D3000F7BDF7BD18C638C659CE59CE59CE59CE93
:104D400059CE79CE59CE18C6B6B555ADD39C34A53B
:104D5000D7BD59CEB6B514A534A555AD34A534A5E7
:104D600075ADB6B5D7BD38C6DBDEFFFFFFFFFFFF71
:104D7000FFFFDFFFFFFFFFFFFFFF9EF73CE7DBDEEC
:104D80001CE7BEF71CE7FBDE5DEFBEF7FBDE38C6B7
:104D900038C6D7BD14A534A53CE7BEF7FFFF79CED2
:104DA0008E73EB5A694AE739084296B514A5CB5A77
:104DB000AA526D6B75AD3CE7BEF77DEFBEF7FFFF06
:104DC000DFFFDFFFFFFFFFFFBEF7FFFFFFFFFFFF7C
:104DD000FFFFFFFFFFFFFFFFFFFFFFFFFFFFFFFFE3
:104DE000FFFFFFFFFFFFFFFFFFFFFFFFFFFFFFFFD3
:104DF000FFFFFFFFFFFFFFFFFFFFFFFFFFFFFFFFC3
:104E0000FFFFFFFFFFFFFFFFFFFFFFFFFFFFFFFFB2
:104E1000FFFFFFFFDFFFFFFFFFFF9AD638C638C650
:104E200038C638C618C659CE79CE59CE59CE38C6EE
:104E300018C6F7BD96B534A5B294518CEF7B8E732E
:104E4000EB5A494AC739863145290421E318A21093
:104E50008631AA5275AD38C6F39CD39CF39CB294AC
:104E6000B294D39C9294718CB29455AD1CE7FFFF21
:104E7000DFFFFFFFBEF7FFFFDFFFFFFFFFFFBEF714
:104E8000DFFFFBDE38C6FBDEFFFFDFFFB2943084BE
:104E90006D6B0C63AA52C739B294FFFFFFFF518CB0
:104EA000A6318631E3180421821092948A522000A0
:104EB000000020000000E739B6B59EF71CE7FBDED6
:104EC000DFFFFFFFFFFFFFFFDFFFFFFFFFFFFFFF32
:104ED000FFFFFFFFFFFFFFFFFFFFFFFFFFFFFFFFE2
:104EE000FFFFFFFFFFFFFFFFFFFFFFFFFFFFFFFFD2
:104EF000FFFFFFFFFFFFFFFFFFFFFFFFFFFFFFFFC2
:104F0000FFFFFFFFFFFFFFFFFFFFFFFFFFFFFFFFB1
:104F1000DFFFFFFFFFFFFFFFBEF7FFFF9EF738C673
:104F200096B555ADB294EF7B8E730C638A52494AA5
:104F3000C73965290421E318C318A210A210A210D2
:104F4000A210C318C318E318E318E31804210421BE
:104F5000C318C318E318518CBAD634A5F39CF39C3C
:104F600014A5F39CF39C34A5F39CB294D39CBAD6BD
:104F7000FFFFFFFFFFFFFFFFDFFFFFFF3CE759CE13
:104F800038C69AD6EF7BCF7B38C618C66D6B4D6B93
:104F9000CB5A8A5228428631494A3CE738C6694A88
:104FA000694A24216108E31841083084F39CEF7BAF
:104FB000518C2C63452900002000518CBEF7DBDEAC
:104FC00059CE3CE79EF7FFFFFFFFBEF7FFFFFFFF55
:104FD000FFFFFFFFFFFFFFFFFFFFFFFFFFFFFFFFE1
:104FE000FFFFFFFFFFFFFFFFFFFFFFFFFFFFFFFFD1
:104FF000FFFFFFFFFFFFFFFFFFFFFFFFFFFFFFFFC1
:10500000FFFFFFFFFFFFFFFFFFFFFFFFFFFFDFFFD0
:10501000FFFFDFFFFFFFFFFFFFFF1CE76D6BC739DF
:10502000E318C318A210A210C3188210A210A21075
:10503000C318E3180421242104210421042104219C
:105040000421042104210421042104210421E31862
:105050002421C3180421610830849AD655AD55AD7A
:1050600075AD34A514A534A555AD34A514A5F39C90
:105070003CE7DFFFBEF7DFFFBEF7B6B5AE734D6BA3
:105080002C639AD6718CCB5A1084EF7B6D6B2C639A
:105090000C63694AC739E73986318A522842284267
:1050A0008A520421E318C3184108518C79CE9AD64C
:1050B00059CEBAD6FBDED39C65296108D39CBEF7D6
:1050C0009AD659CEBAD6FBDE9EF7FFFFFFFFFFFF51
:1050D000FFFFFFFFFFFFFFFFFFFFFFFFFFFFFFFFE0
:1050E000FFFFFFFFFFFFFFFFFFFFFFFFFFFFFFFFD0
:1050F000FFFFFFFFFFFFFFFFFFFFFFFFFFFFFFFFC0
:10510000FFFFFFFFFFFFFFFFFFFFFFFFFFFFDFFFCF
:10511000FFFFFFFFDFFFFFFF3CE72842A210C3189D
:1051200004210421E318E3180421042104210421AB
:10513000E318042104210421E318C31804210421E5
:1051400004210421042104210421E3180421E3188B
:10515000C318042145290421821075AD38C696B5BF
:1051600096B5B6B596B575AD55AD55AD55AD14A55D
:1051700075ADDFFFFFFF3CE7718CEB5AAE73F39C1C
:1051800014A538C6EF7BAA526D6BEF7B8E738E73BE
:105190000C63494A494AA6318631242186310842A6
:1051A000A631452961086108652914A5F7BDD7BD59
:1051B00059CE38C618C65DEFF7BD2842242118C65F
:1051C0007DEF9AD69AD69AD6BAD69EF7DFFFFFFF22
:1051D000FFFFFFFFFFFFFFFFFFFFFFFFFFFFFFFFDF
:1051E000FFFFFFFFFFFFFFFFFFFFFFFFFFFFFFFFCF
:1051F000FFFFFFFFFFFFFFFFFFFFFFFFFFFFFFFFBF
:10520000FFFFFFFFFFFFFFFFFFFFFFFFFFFFFFFFAE
:10521000FFFFDFFFDFFFBEF70842A210E3182421E3
:10522000E318E31824210421E31804210421E318DE
:10523000E3180421242124210421E318E318E318AE
:10524000E3180421042104210421E318042104218A
:105250002421E318C3180421C318084279CEF7BDEE
:10526000D7BDB6B5B6B5D7BDD7BDB6B596B5B6B58B
:1052700075AD59CE5DEF518C2C6334A5BAD6FBDEEB
:105280007DEFF7BD6D6B8A52694A0C634D6B2C63E1
:10529000AA52E739E739E7398631C739C7392421B6
:1052A000694A0842C3186108C7399AD659CEFBDE4D
:1052B00059CE79CE9AD659CEFBDEB6B565292C6388
:1052C0005DEFBAD69AD69AD69AD679CEBEF7DFFFD8
:1052D000FFFFFFFFFFFFFFFFFFFFFFFFFFFFFFFFDE
:1052E000FFFFFFFFFFFFFFFFFFFFFFFFFFFFFFFFCE
:1052F000FFFFFFFFFFFFFFFFFFFFFFFFFFFFFFFFBE
:10530000FFFFFFFFFFFFFFFFFFFFFFFFFFFFFFFFAD
:10531000FFFFDFFFFFFFCF7B61080421E318E318E5
:10532000E31804210421042104210421E320C420E2
:10533000C5282319A211A3190421C528C4200319C3
:1053400003190321032103190319E4200421042173
:10535000E318E31804210421E318A21092949AD6CA
:10536000F7BD38C618C638C6D7BD18C618C6F7BDAB
:10537000D7BD38C692948E73F7BD5DEFFBDE1CE798
:10538000FBDE75AD6D6B8A528A5228424D6B2C63E1
:10539000E7392842E739C739C739A6316529652970
:1053A000EB5AAA52C318A210EB5A7DEF3CE75DEF0F
:1053B0001CE7FBDEBAD659CE9AD6BAD63084242161
:1053C000F7BD5DEF59CEBAD679CE9AD6BAD6BEF72A
:1053D000FFFFFFFFFFFFFFFFFFFFFFFFFFFFFFFFDD
:1053E000FFFFFFFFFFFFFFFFFFFFFFFFFFFFFFFFCD
:1053F000FFFFFFFFFFFFFFFFFFFFFFFFFFFFFFFFBD
:10540000FFFFFFFFFFFFFFFFFFFFFFFFDFFFFFFFCC
:10541000BEF7FFFF9AD60421E3180421E318E3182E
:10542000E318042104210421042104210321C420C0
:10543000C5282319C319A3190419C520E420031989
:1054400003190321032103190319E4200421042172
:10545000E318E31804210421E318C318AA5238C63C
:1054600079CE59CE38C679CE59CE59CE38C679CEF6
:1054700059CEF7BD14A596B51CE7FBDE5DEF5DEFD9
:105480007DEF34A58E738A52494A8A52EF7BAE7300
:10549000694A8A52494A0842C7394529C739CF7BE8
:1054A000EF7B8A52E318A210694A3CE7FBDE1CE757
:1054B0001CE73CE71CE79AD659CE59CE18C60842DD
:1054C000CF7BBEF779CE9AD6BAD679CE79CE1CE705
:1054D000FFFFFFFFFFFFFFFFFFFFFFFFFFFFFFFFDC
:1054E000FFFFFFFFFFFFFFFFFFFFFFFFFFFFFFFFCC
:1054F000FFFFFFFFFFFFFFFFFFFFFFFFFFFFFFFFBC
:10550000FFFFFFFFFFFFFFFFFFFFFFFFDFFFFFFFCB
:10551000FFFFDFFF8E73410804210421E318E31825
:10552000E318042104210421042104210321C420BF
:10553000C4204319E319E4210421C520E420031900
:1055400003190321E42003190319E4200421042191
:105550000421E31804210421E318E318E31896B5A5
:10556000DBDE9AD69AD69AD6BAD679CEBAD638C6CD
:1055700079CE79CE38C6BAD65DEF9EF79EF7BEF7E4
:10558000BEF7B2942C63494A694ACF7B718CEF7B9A
:105590008A52494A0842C739A6318631E7393084F0
:1055A00010844D6B494AAA5230841CE71CE7FBDE8D
:1055B000FBDE3CE71CE7DBDE18C6F7BD59CEEF7B10
:1055C0000842BAD6FBDE79CEBAD69AD679CE79CE53
:1055D000BEF7DFFFFFFFFFFFFFFFFFFFFFFFFFFF44
:1055E000FFFFFFFFFFFFFFFFFFFFFFFFFFFFFFFFCB
:1055F000FFFFFFFFFFFFFFFFFFFFFFFFFFFFFFFFBB
:10560000FFFFFFFFFFFFFFFFFFFFFFFFFFFFDFFFCA
:10561000FFFFFBDE24212421E318E318E318E3183D
:105620000421042104210421042104210319C4209C
:10563000E5204319232204222421E528E42003192C
:1056400003190321E42003190319E4200421042190
:1056500004210421E3180421042104218210518C27
:10566000BAD6DBDEFBDEBAD6DBDEBAD6DBDE9AD616
:10567000DBDE9AD69AD61CE79EF7FFFFDFFFBEF768
:105680009EF7F39C8E73EB5A0C63718CF39C34A5DC
:10569000B29434A575ADB6B5F7BD38C6BAD6FBDE43
:1056A000FBDE3CE77DEF7DEF7DEFFBDE1CE71CE7DB
:1056B000FBDEFBDEFBDE1CE718C6B6B575AD55ADEF
:1056C000A63114A59EF759CE9AD6BAD69AD659CEF7
:1056D0003CE7FFFFFFFFDFFFFFFFFFFFFFFFFFFFD5
:1056E000FFFFFFFFFFFFFFFFFFFFFFFFFFFFFFFFCA
:1056F000FFFFFFFFFFFFFFFFFFFFFFFFFFFFFFFFBA
:10570000FFFFFFFFFFFFFFFFFFFFFFFFFFFF9EF712
:10571000FFFF75ADA21004210421C318E318E3189C
:10572000042104210421042104210421E318E4209C
:10573000E42883194422242224210529E420031982
:105740000319E420E42003190319E42004210421AF
:10575000042104210421E31804210421A210EB5A9E
:1057600079CE3CE71CE71CE7FBDE1CE71CE71CE7E7
:10577000FBDEBAD6DBDE7DEFDFFFBEF79EF79EF7DE
:10578000BEF75DEF1CE75DEF5DEFBEF79EF7DFFF55
:10579000BEF7FFFFFFFFDFFFDFFFBEF79EF79EF7BD
:1057A0007DEF5DEF5DEF3CE73CE73CE71CE71CE786
:1057B0001CE7FBDE1CE75DEF59CE34A514A534A52C
:1057C000084210849EF79AD6BAD679CEBAD679CE48
:1057D000BAD6FFFFFFFFDFFFFFFFFFFFFFFFFFFF67
:1057E000FFFFFFFFFFFFFFFFFFFFFFFFFFFFFFFFC9
:1057F000FFFFFFFFFFFFFFFFFFFFFFFFFFFFFFFFB9
:10580000FFFFFFFFFFFFFFFFFFFFFFFFFFFFDFFFC8
:10581000FFFFCF7B6108E318E3180421E318E318C6
:1058200004210421042104210421E3180319E4289C
:105830000421A421A42A642A43190521E420031980
:105840000319E420E420031903190421042104218D
:10585000042104210421E31804210421C318E73999
:1058600059CE7DEF3CE75DEF5DEF5DEF5DEF3CE72F
:105870001CE73CE73CE73CE7BEF7BEF7BEF79EF708
:105880009EF7DFFF9EF7DFFFBEF77DEF9EF7BEF7C7
:105890007DEF7DEF7DEF7DEF7DEF7DEF7DEF7DEFA8
:1058A0005DEF5DEF3CE77DEFFBDE1CE71CE73CE7CF
:1058B0001CE7FBDEFBDE3CE7BAD6F39CB294D39C3C
:1058C000AA524D6B3CE7DBDEBAD69AD69AD69AD668
:1058D00079CEFFFFFFFFFFFFFFFFDFFFFFFFFFFFAF
:1058E000FFFFFFFFFFFFFFFFFFFFFFFFFFFFFFFFC8
:1058F000FFFFFFFFFFFFFFFFFFFFFFFFFFFFFFFFB8
:10590000FFFFFFFFFFFFFFFFFFFFFFFFFFFFFFFFA7
:10591000FFFF694A61084529C3182421E3180421BF
:105920000421042104210421E318E3180319E420CD
:105930000421C4210533C53263210421E31803196E
:105940000319E420E4200319031904210421E318B6
:10595000E31804210421E318E3180421C31865297E
:10596000F7BDBEF77DEF9EF77DEF7DEF3CE77DEF66
:105970009EF75DEF1CE75DEFBEF79EF7DFFFBEF71A
:105980009EF7BEF77DEF9EF7BEF7BEF79EF79EF738
:105990007DEF7DEF9EF79EF77DEF7DEF7DEF5DEF75
:1059A0007DEF7DEF1CE75DEF5DEF5DEF3CE73CE7F2
:1059B0003CE7FBDEFBDE1CE71CE714A5EF7B9294C3
:1059C0002C63AA521CE7FBDE9AD6DBDE79CE9AD690
:1059D00079CE9EF7FFFFFFFFFFFFFFFFFFFFFFFFF7
:1059E000FFFFFFFFFFFFFFFFFFFFFFFFFFFFFFFFC7
:1059F000FFFFFFFFFFFFFFFFFFFFFFFFFFFFFFFFB7
:105A0000FFFFFFFFFFFFFFFFFFFFFFFFFFFFFFFFA6
:105A10005DEF8631E318E3180421E318E31804214D
:105A20000421042104210421E318E31803190421AB
:105A300004210422663B2633A4212521E3180319FF
:105A40000319E420E4200319031904210421E318B5
:105A5000E318042104210421E318E318E3182421A6
:105A600075ADBEF7BEF79EF79EF7BEF7BEF77DEFAA
:105A70009EF77DEF3CE77DEFBEF7BEF79EF79EF702
:105A8000BEF7BEF7DFFF9EF79EF79EF79EF7BEF7C5
:105A90009EF77DEF9EF77DEF7DEF9EF77DEF5DEF4B
:105AA0005DEF3CE77DEF3CE73CE73CE73CE71CE78C
:105AB0003CE71CE71CE7FBDE3CE7F39CEF7B308414
:105AC0002C63AA525DEFFBDEBAD69AD69AD69AD646
:105AD0009AD63CE7FFFFFFFFFFFFFFFFFFFFFFFF3F
:105AE000FFFFFFFFFFFFFFFFFFFFFFFFFFFFFFFFC6
:105AF000FFFFFFFFFFFFFFFFFFFFFFFFFFFFFFFFB6
:105B0000FFFFFFFFFFFFFFFFFFFFFFFFFFFFFFFFA5
:105B1000DBDE2421E3182421E318042104210421DD
:105B20000421042104210421042104210319042156
:105B300024210322084C663BE4212421032103197C
:105B40000319E420E420031903190421042104218A
:105B5000042104210421042104210421E318242127
:105B600055AD9EF7BEF79EF79EF79EF79EF79EF700
:105B70009EF77DEF7DEF7DEF9EF7BEF7BEF7BEF798
:105B80009EF7BEF7BEF79EF79EF79EF79EF79EF72D
:105B90009EF79EF77DEF7DEF7DEF7DEF7DEF7DEF53
:105BA0007DEF3CE77DEF3CE71CE73CE73CE75DEF42
:105BB0003CE7FBDEDBDE3CE71CE734A5AE7330845C
:105BC0004D6B694A3CE7BAD6DBDE9AD6BAD69AD68E
:105BD00079CEFBDEFFFFFFFFFFFFFFFFFFFFFFFFB1
:105BE000FFFFFFFFFFFFFFFFFFFFFFFFFFFFFFFFC5
:105BF000FFFFFFFFFFFFFFFFFFFFFFFFFFFFFFFFB5
:105C0000FFFFFFFFFFFFFFFFFFFFFFFFDFFFFFFFC4
:105C100079CEE318E3180421E318042104210421B8
:105C20000421042104210421042104212319042135
:105C300064212422284C863B042244210321231979
:105C40000319E420E4200319031904190421042191
:105C5000042104210421042104210421E318242126
:105C600055AD9EF7BEF79EF79EF79EF79EF79EF7FF
:105C70009EF77DEF7DEF7DEF9EF7BEF7BEF79EF7B7
:105C80009EF7DFFFBEF7BEF7BEF79EF79EF79EF7C3
:105C90009EF79EF79EF79EF77DEF7DEF9EF75DEFF7
:105CA0007DEF3CE71CE77DEF7DEF3CE73CE71CE741
:105CB000FBDE5DEF3CE7FBDE5DEF34A58E73108409
:105CC0002C63CB5A1CE7FBDEBAD69AD69AD69AD664
:105CD00079CEFBDEFFFFFFFFFFFFFFFFFFFFFFFFB0
:105CE000FFFFFFFFFFFFFFFFFFFFFFFFFFFFFFFFC4
:105CF000FFFFFFFFFFFFFFFFFFFFFFFFFFFFFFFFB4
:105D0000FFFFFFFFFFFFFFFFFFFFFFFFDFFFFFFFC3
:105D1000F7BDA210E318E318E318042104210421BD
:105D200004210421042104210421E318021904217F
:105D30006429642A484CC63B242264212319221971
:105D40000319E420E420041903190419042104218F
:105D5000042104210421042104210421E318242125
:105D600055AD9EF7BEF7BEF79EF7BEF79EF79EF7BE
:105D70009EF77DEF7DEF7DEF9EF7BEF77DEFFFFF96
:105D8000BEF77DEFBEF7BEF79EF7BEF79EF79EF714
:105D90009EF79EF79EF79EF77DEF7DEF5DEF5DEF3F
:105DA0007DEF5DEF5DEF3CE7FBDE5DEF5DEF1CE758
:105DB0001CE7FBDE1CE71CE71CE714A5AE73308470
:105DC0004D6B494AFBDE1CE79AD69AD69AD679CE15
:105DD00079CEFBDEFFFFFFFFFFFFFFFFFFFFFFFFAF
:105DE000FFFFFFFFFFFFFFFFFFFFFFFFFFFFFFFFC3
:105DF000FFFFFFFFFFFFFFFFFFFFFFFFFFFFFFFFB3
:105E0000FFFFFFFFFFFFFFFFFFFFFFFFFFFFFFFFA2
:105E1000D7BDA2100421E318042104210421042188
:105E2000042104210421E318E318E3182219242192
:105E30008529A42AA9540744442A842143212319EB
:105E40000319E420E420041904190419042104218D
:105E5000042104210421042104210421E318242124
:105E600055AD7DEFBEF7BEF79EF7BEF79EF79EF7E6
:105E70009EF77DEF7DEF7DEF9EF7BEF7BEF77DEFDE
:105E80009EF79EF79EF7BEF7BEF7BEF79EF79EF70A
:105E90009EF77DEF7DEF7DEF7DEF7DEF5DEF7DEF99
:105EA0005DEF3CE77DEF3CE75DEF3CE77DEF1CE716
:105EB0001CE73CE7DBDE1CE73CE734A5AE73CF7B99
:105EC0000C63494AFBDEFBDE79CEBAD69AD679CE90
:105ED00079CEFBDEFFFFFFFFFFFFFFFFFFFFFFFFAE
:105EE000FFFFFFFFFFFFFFFFFFFFFFFFFFFFFFFFC2
:105EF000FFFFFFFFFFFFFFFFFFFFFFFFFFFFFFFFB2
:105F0000FFFFFFFFFFFFFFFFFFFFFFFFFFFFFFFFA1
:105F1000D7BDC3182421E31804210421042104213E
:105F200004210421E318E318E318E318231944219A
:105F3000A529E5320A5D684CA52AA4294321231925
:105F40000319E420E4200421041904190421042184
:105F5000042104210421042104210421E318242123
:105F600055AD7DEFBEF7BEF79EF7BEF79EF79EF7E5
:105F70009EF77DEF7DEF7DEF9EF7BEF7BEF7BEF794
:105F8000FFFFBEF77DEFBEF79EF79EF79EF79EF7E9
:105F90007DEF7DEF7DEF7DEF7DEF7DEF7DEF5DEFC1
:105FA0007DEF3CE73CE73CE7BEF755ADAE735DEFF8
:105FB0001CE73CE73CE7FBDE3CE714A5EF7BCF7B2F
:105FC00075AD79CE1CE7BAD6FBDE79CE9AD69AD6D5
:105FD00079CEFBDEFFFFFFFFFFFFFFFFFFFFFFFFAD
:105FE000FFFFFFFFFFFFFFFFFFFFFFFFFFFFFFFFC1
:105FF000FFFFFFFFFFFFFFFFFFFFFFFFFFFFFFFFB1
:10600000FFFFFFFFFFFFFFFFFFFFFFFFDFFFFFFFC0
:10601000D7BDC3180421E31804210421042104215D
:1060200004210421E318E318E318E3182319442199
:10603000C52905334B65A954C532A429432122192A
:10604000E318E420E42004210419041904210421A4
:10605000042104210421042104210421E318242122
:1060600055AD7DEFBEF79EF79EF7BEF79EF79EF704
:106070009EF77DEF7DEF7DEF9EF7BEF77DEF18C6B3
:10608000BAD6BEF79EF79EF79EF79EF79EF79EF74D
:106090009EF79EF77DEF7DEF7DEF7DEF5DEF5DEF8E
:1060A0007DEF5DEF5DEF1CE77DEF34A5EB5A5DEF13
:1060B0003CE7DBDE1CE71CE7FBDE14A5AE73EF7BE1
:1060C0008E738E73DBDEFBDEBAD69AD69AD69AD65C
:1060D00079CEFBDEFFFFFFFFFFFFFFFFFFFFFFFFAC
:1060E000FFFFFFFFFFFFFFFFFFFFFFFFFFFFFFFFC0
:1060F000FFFFFFFFFFFFFFFFFFFFFFFFFFFFFFFFB0
:10610000FFFFFFFFFFFFFFFFFFFFFFFFFFFFFFFF9F
:10611000F7BDC318E318E3180421E3180421042190
:106120000421E318E318E318E318E31822194421C3
:10613000E529463B8B65E954E532C42963212219E0
:10614000E318C420E42004210419041904210421C3
:10615000042104210421042104210421E318242121
:1061600055AD7DEFBEF79EF79EF7BEF79EF79EF703
:106170009EF77DEF7DEF7DEF9EF7BEF7FFFF30844A
:1061800055ADFFFFBEF77DEFFFFF7DEF9EF79EF75A
:106190009EF77DEF7DEF7DEF7DEF7DEF7DEF7DEF76
:1061A0003CE73CE75DEF3CE79EF73CE73CE7FBDE86
:1061B0001CE73CE7FBDE1CE75DEF14A5CF7B518CB1
:1061C000AA522421FBDEFBDEBAD69AD69AD679CE25
:1061D00079CEFBDEFFFFFFFFFFFFFFFFFFFFFFFFAB
:1061E000FFFFFFFFFFFFFFFFFFFFFFFFFFFFFFFFBF
